{
  "contractName": "Splitwise",
  "abi": [
    {
      "constant": true,
      "inputs": [
        {
          "name": "",
          "type": "uint256"
        }
      ],
      "name": "users",
      "outputs": [
        {
          "name": "",
          "type": "address"
        }
      ],
      "payable": false,
      "stateMutability": "view",
      "type": "function"
    },
    {
      "constant": true,
      "inputs": [
        {
          "name": "",
          "type": "address"
        },
        {
          "name": "",
          "type": "address"
        }
      ],
      "name": "debts",
      "outputs": [
        {
          "name": "",
          "type": "int32"
        }
      ],
      "payable": false,
      "stateMutability": "view",
      "type": "function"
    },
    {
      "constant": true,
      "inputs": [
        {
          "name": "debtor",
          "type": "address"
        },
        {
          "name": "creditor",
          "type": "address"
        }
      ],
      "name": "lookup",
      "outputs": [
        {
          "name": "ret",
          "type": "int32"
        }
      ],
      "payable": false,
      "stateMutability": "view",
      "type": "function"
    },
    {
      "constant": false,
      "inputs": [
        {
          "name": "creditor",
          "type": "address"
        },
        {
          "name": "amount",
          "type": "int32"
        }
      ],
      "name": "add_IOU",
      "outputs": [],
      "payable": false,
      "stateMutability": "nonpayable",
      "type": "function"
    },
    {
      "constant": false,
      "inputs": [
        {
          "name": "debtor",
          "type": "address"
        },
        {
          "name": "creditor",
          "type": "address"
        },
        {
          "name": "amount",
          "type": "int32"
        }
      ],
      "name": "addDebt",
      "outputs": [],
      "payable": false,
      "stateMutability": "nonpayable",
      "type": "function"
    },
    {
      "constant": true,
      "inputs": [],
      "name": "getUsers",
      "outputs": [
        {
          "name": "ret",
          "type": "address[]"
        }
      ],
      "payable": false,
      "stateMutability": "view",
      "type": "function"
    }
  ],
  "bytecode": "0x608060405234801561001057600080fd5b5061047c806100206000396000f3fe6080604052600436106100765763ffffffff7c0100000000000000000000000000000000000000000000000000000000600035041662ce8e3e811461007b578063365b98b2146100e05780634ac1c33d14610126578063713584a61461017a578063ada187c4146101b5578063fe95a268146101f3575b600080fd5b34801561008757600080fd5b50610090610239565b60408051602080825283518183015283519192839290830191858101910280838360005b838110156100cc5781810151838201526020016100b4565b505050509050019250505060405180910390f35b3480156100ec57600080fd5b5061010a6004803603602081101561010357600080fd5b50356102ce565b60408051600160a060020a039092168252519081900360200190f35b34801561013257600080fd5b506101616004803603604081101561014957600080fd5b50600160a060020a03813581169160200135166102f6565b60408051600392830b90920b8252519081900360200190f35b34801561018657600080fd5b506101616004803603604081101561019d57600080fd5b50600160a060020a0381358116916020013516610313565b3480156101c157600080fd5b506101f1600480360360408110156101d857600080fd5b50600160a060020a03813516906020013560030b61033f565b005b3480156101ff57600080fd5b506101f16004803603606081101561021657600080fd5b50600160a060020a0381358116916020810135909116906040013560030b61034e565b6001546040805182815260208084028201019091526060918015610267578160200160208202803883390190505b50905060005b6001548110156102ca57600180548290811061028557fe5b6000918252602090912001548251600160a060020a03909116908390839081106102ab57fe5b600160a060020a0390921660209283029091019091015260010161026d565b5090565b60018054829081106102dc57fe5b600091825260209091200154600160a060020a0316905081565b600060208181529281526040808220909352908152205460030b81565b600160a060020a0391821660009081526020818152604080832093909416825291909152205460030b90565b61034a33838361034e565b5050565b600160a060020a038084166000908152602081815260408083209386168352929052208054600381810b8401900b63ffffffff1663ffffffff19909116179055610397826103a5565b6103a0836103a5565b505050565b60005b6001548110156103f45781600160a060020a03166001828154811015156103cb57fe5b600091825260209091200154600160a060020a031614156103ec575061044d565b6001016103a8565b506001805480820182556000919091527fb10e2d527612073b26eecdfd717e6a320cf44b4afac2b0732d9fcbe2b7fa0cf601805473ffffffffffffffffffffffffffffffffffffffff1916600160a060020a0383161790555b5056fea165627a7a72305820a467a6b03b9df695239ace087345f8dc81413504053a1ea98b5fb3397f805b650029",
  "source": "// Please paste your contract's solidity code here\n// Note that writing a contract here WILL NOT deploy it and allow you to access it from your client\n// You should write and develop your contract in Remix and then, before submitting, copy and paste it here\n\n\npragma solidity ^0.5.0;\n\ncontract Splitwise{\n      mapping(address => mapping (address => int32)) public debts;\n      address[] public users;\n      \n      function lookup(address debtor, address creditor) public view returns (int32 ret){\n          ret = debts[debtor][creditor];\n      }\n      function add_IOU(address creditor, int32 amount) public{\n          addDebt(msg.sender, creditor, amount);\n      }\n      function addDebt(address debtor, address creditor , int32 amount) public{\n          debts[debtor][creditor] += amount;\n          addToUsers(creditor);\n          addToUsers(debtor);\n      }\n      function addToUsers(address add) private{\n          for (uint i = 0; i < users.length; i++){\n            if (users[i] == add)\n                return;\n            }\n        users.push(add);\n      }\n    //   function getDepts(address from) public view returns (mapping (address => uint256) memory) {\n    //      mapping(address => uint32) memory ret;\n    //      return ret;\n    //   }\n    \n    function getUsers() public view returns (address[] memory ret){\n        ret = new address[](users.length);\n        for (uint i = 0; i < users.length; i++){\n            ret[i] = users[i];\n        }\n    }\n      \n}",
  "sourcePath": "/Users/mamareza/University/Cryptography/Projects/2/truffle/contracts/Splitwise.sol",
  "compiler": {
    "name": "solc",
    "version": "0.5.0+commit.1d4f565a.Emscripten.clang"
  },
  "schemaVersion": "3.0.9",
  "updatedAt": "2019-06-02T10:42:02.930Z",
  "devdoc": {
    "methods": {}
  },
  "userdoc": {
    "methods": {}
  }
}